{
  "_format": "hh-sol-artifact-1",
  "contractName": "PayPerQuery",
  "sourceName": "contracts/PayPerQuery.sol",
  "abi": [
    {
      "inputs": [
        {
          "internalType": "address",
          "name": "_paymentToken",
          "type": "address"
        },
        {
          "internalType": "uint256",
          "name": "_initialFee",
          "type": "uint256"
        }
      ],
      "stateMutability": "nonpayable",
      "type": "constructor"
    },
    {
      "inputs": [
        {
          "internalType": "address",
          "name": "owner",
          "type": "address"
        }
      ],
      "name": "OwnableInvalidOwner",
      "type": "error"
    },
    {
      "inputs": [
        {
          "internalType": "address",
          "name": "account",
          "type": "address"
        }
      ],
      "name": "OwnableUnauthorizedAccount",
      "type": "error"
    },
    {
      "anonymous": false,
      "inputs": [
        {
          "indexed": false,
          "internalType": "uint256",
          "name": "oldFee",
          "type": "uint256"
        },
        {
          "indexed": false,
          "internalType": "uint256",
          "name": "newFee",
          "type": "uint256"
        }
      ],
      "name": "FeeUpdated",
      "type": "event"
    },
    {
      "anonymous": false,
      "inputs": [
        {
          "indexed": true,
          "internalType": "address",
          "name": "previousOwner",
          "type": "address"
        },
        {
          "indexed": true,
          "internalType": "address",
          "name": "newOwner",
          "type": "address"
        }
      ],
      "name": "OwnershipTransferred",
      "type": "event"
    },
    {
      "anonymous": false,
      "inputs": [
        {
          "indexed": true,
          "internalType": "address",
          "name": "payer",
          "type": "address"
        },
        {
          "indexed": false,
          "internalType": "uint256",
          "name": "amount",
          "type": "uint256"
        },
        {
          "indexed": true,
          "internalType": "uint256",
          "name": "queryId",
          "type": "uint256"
        },
        {
          "indexed": false,
          "internalType": "uint256",
          "name": "timestamp",
          "type": "uint256"
        }
      ],
      "name": "QueryPaid",
      "type": "event"
    },
    {
      "anonymous": false,
      "inputs": [
        {
          "indexed": true,
          "internalType": "address",
          "name": "to",
          "type": "address"
        },
        {
          "indexed": false,
          "internalType": "uint256",
          "name": "amount",
          "type": "uint256"
        }
      ],
      "name": "Withdrawn",
      "type": "event"
    },
    {
      "inputs": [
        {
          "internalType": "uint256",
          "name": "queryId",
          "type": "uint256"
        }
      ],
      "name": "askQuestion",
      "outputs": [],
      "stateMutability": "nonpayable",
      "type": "function"
    },
    {
      "inputs": [],
      "name": "fee",
      "outputs": [
        {
          "internalType": "uint256",
          "name": "",
          "type": "uint256"
        }
      ],
      "stateMutability": "view",
      "type": "function"
    },
    {
      "inputs": [],
      "name": "owner",
      "outputs": [
        {
          "internalType": "address",
          "name": "",
          "type": "address"
        }
      ],
      "stateMutability": "view",
      "type": "function"
    },
    {
      "inputs": [],
      "name": "paymentToken",
      "outputs": [
        {
          "internalType": "contract IERC20",
          "name": "",
          "type": "address"
        }
      ],
      "stateMutability": "view",
      "type": "function"
    },
    {
      "inputs": [],
      "name": "renounceOwnership",
      "outputs": [],
      "stateMutability": "nonpayable",
      "type": "function"
    },
    {
      "inputs": [
        {
          "internalType": "uint256",
          "name": "newFee",
          "type": "uint256"
        }
      ],
      "name": "setFee",
      "outputs": [],
      "stateMutability": "nonpayable",
      "type": "function"
    },
    {
      "inputs": [
        {
          "internalType": "address",
          "name": "newOwner",
          "type": "address"
        }
      ],
      "name": "transferOwnership",
      "outputs": [],
      "stateMutability": "nonpayable",
      "type": "function"
    },
    {
      "inputs": [],
      "name": "withdraw",
      "outputs": [],
      "stateMutability": "nonpayable",
      "type": "function"
    }
  ],
  "bytecode": "0x60a060405234801561001057600080fd5b506040516108ab3803806108ab83398101604081905261002f9161016c565b338061005657604051631e4fbdf760e01b8152600060048201526024015b60405180910390fd5b61005f8161011c565b506001600160a01b0382166100b65760405162461bcd60e51b815260206004820152601f60248201527f50617950657251756572793a207a65726f20746f6b656e206164647265737300604482015260640161004d565b600081116101065760405162461bcd60e51b815260206004820152601c60248201527f50617950657251756572793a20666565206d757374206265203e203000000000604482015260640161004d565b6001600160a01b039091166080526001556101a6565b600080546001600160a01b038381166001600160a01b0319831681178455604051919092169283917f8be0079c531659141344cd1fd0a4f28419497f9722a3daafe3b4186f6b6457e09190a35050565b6000806040838503121561017f57600080fd5b82516001600160a01b038116811461019657600080fd5b6020939093015192949293505050565b6080516106d66101d5600039600081816092015281816101640152818161023201526103ab01526106d66000f3fe608060405234801561001057600080fd5b50600436106100885760003560e01c8063715018a61161005b578063715018a6146101015780638da5cb5b14610109578063ddca3f431461011a578063f2fde38b1461013157600080fd5b80633013ce291461008d5780633ccfd60b146100d15780634ad8c05a146100db57806369fe0e2d146100ee575b600080fd5b6100b47f000000000000000000000000000000000000000000000000000000000000000081565b6040516001600160a01b0390911681526020015b60405180910390f35b6100d9610144565b005b6100d96100e936600461061c565b610383565b6100d96100fc36600461061c565b6104b0565b6100d961054d565b6000546001600160a01b03166100b4565b61012360015481565b6040519081526020016100c8565b6100d961013f366004610635565b610561565b61014c61059f565b6040516370a0823160e01b81523060048201526000907f00000000000000000000000000000000000000000000000000000000000000006001600160a01b0316906370a0823190602401602060405180830381865afa1580156101b3573d6000803e3d6000fd5b505050506040513d601f19601f820116820180604052508101906101d79190610665565b90506000811161022e5760405162461bcd60e51b815260206004820181905260248201527f50617950657251756572793a206e6f7468696e6720746f20776974686472617760448201526064015b60405180910390fd5b60007f00000000000000000000000000000000000000000000000000000000000000006001600160a01b031663a9059cbb6102716000546001600160a01b031690565b6040516001600160e01b031960e084901b1681526001600160a01b039091166004820152602481018590526044016020604051808303816000875af11580156102be573d6000803e3d6000fd5b505050506040513d601f19601f820116820180604052508101906102e2919061067e565b9050806103315760405162461bcd60e51b815260206004820152601c60248201527f50617950657251756572793a207472616e73666572206661696c6564000000006044820152606401610225565b6000546001600160a01b03166001600160a01b03167f7084f5476618d8e60b11ef0d7d3f06914655adb8793e28ff7f018d4c76d505d58360405161037791815260200190565b60405180910390a25050565b6001546040516323b872dd60e01b8152336004820152306024820152604481018290526000907f00000000000000000000000000000000000000000000000000000000000000006001600160a01b0316906323b872dd906064016020604051808303816000875af11580156103fc573d6000803e3d6000fd5b505050506040513d601f19601f82011682018060405250810190610420919061067e565b90508061046f5760405162461bcd60e51b815260206004820181905260248201527f50617950657251756572793a207472616e7366657246726f6d206661696c65646044820152606401610225565b60408051838152426020820152849133917faed3ec1cdca7faa44a0bc7084d2fb55325509b02a696d1a47c05dbb68f0fd715910160405180910390a3505050565b6104b861059f565b600081116105085760405162461bcd60e51b815260206004820152601c60248201527f50617950657251756572793a20666565206d757374206265203e2030000000006044820152606401610225565b600180549082905560408051828152602081018490527f528d9479e9f9889a87a3c30c7f7ba537e5e59c4c85a37733b16e57c62df61302910160405180910390a15050565b61055561059f565b61055f60006105cc565b565b61056961059f565b6001600160a01b03811661059357604051631e4fbdf760e01b815260006004820152602401610225565b61059c816105cc565b50565b6000546001600160a01b0316331461055f5760405163118cdaa760e01b8152336004820152602401610225565b600080546001600160a01b038381166001600160a01b0319831681178455604051919092169283917f8be0079c531659141344cd1fd0a4f28419497f9722a3daafe3b4186f6b6457e09190a35050565b60006020828403121561062e57600080fd5b5035919050565b60006020828403121561064757600080fd5b81356001600160a01b038116811461065e57600080fd5b9392505050565b60006020828403121561067757600080fd5b5051919050565b60006020828403121561069057600080fd5b8151801515811461065e57600080fdfea2646970667358221220f7f181034d0294f18ee2bc31bc6afa508cd2bff473f6599a94205cb4d1315eef64736f6c634300081c0033",
  "linkReferences": {},
  "deployedLinkReferences": {}
}